S0110000536C6176655F4D43552E73726563D4
S11300000C942A000C943F000C943F000C943F0085
S11300100C943F000C943F000C943F000C943F0060
S11300200C943F000C943F000C943F000C943F0050
S11300300C943F000C943F000C943F000C943F0040
S11300400C943F000C943F000C943F000C943F0030
S11300500C943F0011241FBECFE5D8E0DEBFCDBF16
S113006010E0A0E6B0E0E6E3F5E002C005900D92F2
S1130070A836B107D9F70E9432020C9499020C9465
S11300800000442319F04130C9F10895813091F002
S113009028F08230D9F0833029F108952AB381E021
S11300A090E002C0880F991F6A95E2F78095822339
S11300B08ABB089527B381E090E002C0880F991F9E
S11300C06A95E2F78095822387BB089524B381E083
S11300D090E002C0880F991F6A95E2F78095822309
S11300E084BB089521B381E090E002C0880F991F7A
S11300F06A95E2F78095822381BB0895813089F067
S113010028F08230C9F0833011F108952AB381E0D8
S113011090E002C0880F991F6A95E2F7822B8ABB90
S1130120089527B381E090E002C0880F991F6A9573
S1130130E2F7822B87BB089524B381E090E002C0EC
S1130140880F991F6A95E2F7822B84BB089521B327
S113015081E090E002C0880F991F6A95E2F7822B34
S113016081BB0895442319F04130C9F108958130C9
S113017091F028F08230D9F0833029F108952BB31F
S113018081E090E002C0880F991F6A95E2F780959C
S113019082238BBB089528B381E090E002C0880FCE
S11301A0991F6A95E2F78095822388BB089525B349
S11301B081E090E002C0880F991F6A95E2F780956C
S11301C0822385BB089522B381E090E002C0880FAA
S11301D0991F6A95E2F78095822382BB0895813046
S11301E089F028F08230C9F0833011F108952BB3DF
S11301F081E090E002C0880F991F6A95E2F7822B94
S11302008BBB089528B381E090E002C0880F991F4A
S11302106A95E2F7822B88BB089525B381E090E0CC
S113022002C0880F991F6A95E2F7822B85BB089557
S113023022B381E090E002C0880F991F6A95E2F72B
S1130240822B82BB0895CF93C82F40E061E081E008
S11302500E94B20040E062E081E00E94B20040E00F
S113026063E081E00E94B2008BB39C2F907F8F707B
S1130270892B8BBB41E063E081E00E94B2008FE9EF
S11302809FE00197F1F700C0000040E063E081E0E7
S11302900E94B2002BB330E1C39FC0011124922FFE
S11302A09F70892B8BBB41E063E081E00E94B20028
S11302B08FE99FE00197F1F700C0000040E063E0A0
S11302C081E00E94B2008FE19EE40197F1F700C043
S11302D00000CF91089541E061E081E00E94410077
S11302E041E062E081E00E94410041E063E081E09E
S11302F00E94410041E064E080E00E94410041E04E
S113030065E080E00E94410041E066E080E00E94F8
S1130310410041E067E080E00E9441002FEF81EE60
S113032094E0215080409040E1F700C0000082E05A
S11303300E94230183E30E94230182E30E9423019C
S113034088E20E9423018CE00E94230181E00E9444
S1130350230186E00E9423010895CF93C82F41E032
S113036061E081E00E94B20040E062E081E00E942E
S1130370B20040E063E081E00E94B2008BB39C2FA6
S1130380907F8F70892B8BBB41E063E081E00E94FA
S1130390B2008FE99FE00197F1F700C0000040E050
S11303A063E081E00E94B2002BB330E1C39FC0013F
S11303B01124922F9F70892B8BBB41E063E081E075
S11303C00E94B2008FE99FE00197F1F700C000009E
S11303D040E063E081E00E94B2008FE19EE4019777
S11303E0F1F700C00000CF91089581E00E9423013D
S11303F00895CF93DF93EC018881882361F08FE91E
S11304009FE00197F1F700C0000089910E94AD01BF
S113041088818111F4CFDF91CF91089541E062E0AA
S113042082E00E944100089541E062E082E00E947F
S1130430B200089540E062E082E00E94B2000895B4
S113044041E067E082E00E944100089541E067E0F6
S113045082E00E94B200089540E067E082E00E94DA
S1130460B20008950E940E020E9420020E946B01B5
S11304700E948E020E94F50180E690E00E94F9013C
S11304802FEF83ED90E3215080409040E1F700C0CE
S113049000000E94F5010E949502C82F982F9F7DAD
S11304A0933419F40E94F501F6CF913499F40E9423
S11304B0F5010E9414028C2F0E94AD012FEF83EDF1
S11304C090E3215080409040E1F700C000000E947A
S11304D01A02E1CF923499F40E94F5010E94260297
S11304E08C2F0E94AD012FEF83ED90E321508040CB
S11304F09040E1F700C000000E942C02CCCF0E9483
S1130500F5018C2F0E94AD012FEF83ED90E3215074
S113051080409040E1F700C00000BDCFBD98BE9A76
S1130520BF98BC9883E48DB90895779BFECF8FB1B3
S10905300895F894FFCFCA
S10B053657656C636F6D6500ED
S9030000FC
